:100000000C9434000C9446000C9446000C9446006A
:100010000C9446000C9446000C9446000C94460048
:100020000C9446000C9446000C9446000C94460038
:100030000C9446000C9446000C9446000C94460028
:100040000C9446000C9446000C9446000C94460018
:100050000C9446000C9446000C9446000C94460008
:100060000C9446000C94460011241FBECFEFD8E03C
:10007000DEBFCDBF11E0A0E0B1E001C01D92A4320F
:10008000B107E1F70E9463090C94980D0C940000ED
:1000900090E020EA3FE005C0A895F9013197F1F71B
:1000A0009F5F9817C8F308950F931F93CF93DF9323
:1000B000082F10E00BC0C0E0D0E081E00E944800B3
:1000C000219683E0C73ED807C1F71F5F101798F34A
:1000D000DF91CF911F910F9108952CEF33E005C070
:1000E000F9013197F1F78F5F90408F3F910509F04B
:1000F000B8F7009761F090E0A0E0B0E022E0880F50
:10010000991FAA1FBB1F2A95D1F70197F1F70895F0
:1001100040EA5FE009C020E0FA013197F1F72F5F74
:100120002F3FD1F78F5F90408F3F910509F098F7EF
:10013000009749F020E040EA5FE0FA013197F1F7DB
:100140002F5F2817D0F30895CF93DF93EC0105C0FC
:100150008FEF0E944800CF5FD040CF3FD10509F01C
:10016000B8F7209719F08C2F0E944800DF91CF91AB
:10017000089540EA5FE022C0FA013197F1F72F5F5E
:100180002A3FD1F720E0FA013197F1F72F5F2A3F9C
:10019000D1F720E0FA013197F1F72F5F2A3FD1F72D
:1001A00020E0FA013197F1F72F5F2A3FD1F73F5F47
:1001B0003F3F11F020E0E0CF8F5F90408F3F9105EF
:1001C00019F010F030E0F6CF009721F130E040EA6E
:1001D0005FE01EC0FA013197F1F72F5F2A3FD1F798
:1001E00020E0FA013197F1F72F5F2A3FD1F720E0A5
:1001F000FA013197F1F72F5F2A3FD1F720E0FA019A
:100200003197F1F72F5F2A3FD1F73F5F381710F48E
:1002100020E0E0CF0895CF93DF93EC0105C08FEF8E
:100220000E945400CF5FD040CF3FD10509F0B8F70E
:10023000209719F08C2F0E945400DF91CF910895E0
:10024000DF93CF9300D000D0CDB7DEB769837A8338
:100250008B839C83FE0131968981882369F4818197
:10026000882351F48281803839F483818F778F37E6
:1002700019F42FEF3FEF02C020E030E0C9010F90EA
:100280000F900F900F90CF91DF910895E7E2F0E08B
:10029000F0930A01E093090197B190932301E1E003
:1002A000F0E0082E02C0EE0FFF1F0A94E2F7E0957F
:1002B000E923E7B96068EAE7F0E06083806291E0F3
:1002C000941B9295990F990F907C982B90937C009A
:1002D00030E040E050E062E0220F331F441F551F22
:1002E0006A95D1F7C9010197F1F780818064808315
:1002F0000895982F80917A0086FDFCCF992389F08C
:1003000080917800829586958695837090E0209103
:10031000790030E0220F331F220F331F282B392B97
:1003200004C080917900282F30E080917A008064A9
:1003300080937A00C9010895E0910901F0910A01C2
:10034000809123018083EAE7F0E080818F778083CA
:100350000895569A5E9884B58C7B84BD84B5816877
:1003600084BD089584B58F7784BD5698089587BD60
:10037000089581E06030780701F181E0613078070D
:1003800050F468307105A9F060347105A1F0613056
:100390007105D9F40CC08FEF6E3F7807A1F08FEF95
:1003A0006F3F780770F46050744079F408C081E1C1
:1003B0000DC082E10BC083E109C084E107C085E183
:1003C00005C086E103C087E101C080E185BD0895D5
:1003D000969587959695879587BD089581E00E94AB
:1003E00079010895EF92FF920F931F93CF93DF93BC
:1003F000082F662321F4C0E0D0E010E022C0862F51
:1004000090E0A0E0B0E0F2E0880F991FAA1FBB1FA8
:10041000FA95D1F77C01C0E0D0E010E009C080E09F
:100420000E947901C80FD91F1F5FC7010197F1F71B
:100430001017A8F308C080E00E947901C80FD91FE7
:100440001F5F1017C0F3CE01602F70E00E94620D95
:10045000862FDF91CF911F910F91FF90EF9008951C
:100460000F931F93182F062F83E063E040E028E2EC
:100470000E944601812F602F0E94F201E091090144
:10048000F0910A01909123019083EAE7F0E09081D6
:100490009F7790831F910F910895CF92DF92EF92F3
:1004A000FF920F931F93CF93DF93C82E662329F4F7
:1004B000EE24FF248701DD242BC0862F90E0A0E0EE
:1004C000B0E012E0880F991FAA1FBB1F1A95D1F741
:1004D000EC01EE24FF248701DD240DC081E00E94A1
:1004E0007901A0E0B0E0E80EF91E0A1F1B1FD394AB
:1004F000CE010197F1F7DC1488F30CC081E00E9473
:100500007901A0E0B0E0E80EF91E0A1F1B1FD3948A
:10051000DC14A0F32C2D30E040E050E0C801B7011E
:100520000E94760DC901DF91CF911F910F91FF902D
:10053000EF90DF90CF9008950F931F93182F062F01
:1005400083E063E040E028E20E944601812F602FB3
:100550000E944D02E0910901F0910A0120912301CE
:100560002083EAE7F0E020812F7720831F910F910D
:10057000089583E063E040E028E20E94460181E0C4
:100580000E947901E0910901F0910A012091230173
:100590002083EAE7F0E020812F772083A0E0B0E01D
:1005A000BC01CD010E94DB0B23E931E040EA5BE3B3
:1005B0000E94E00C089583E063E040E028E20E949E
:1005C0004601089580E00E947901089583E063E088
:1005D00040E028E20E94460181E00E947901E0911A
:1005E0000901F0910A01209123012083EAE7F0E05C
:1005F00020812F7720830895E0910901F0910A016D
:10060000809123018083EAE7F0E080818F77808307
:10061000089583E063E040E028E20E94460180E024
:100620000E947901E0910901F0910A019091230162
:100630009083EAE7F0E090819F779083089580E0CF
:1006400008950E94B90108951092080184B58F772A
:1006500084BD56980895982F80910801811197BD07
:10066000089581E0809308018FEF90E068E070E0EA
:100670000E94B9010E94A90108959C01809108017E
:10068000882329F0369527953695279527BD089517
:10069000209A289A85B10895209A289885B10895BE
:1006A000259A2D9A85B10895259A2D9885B108959A
:1006B000249A2C9A85B10895249A2C9885B108958E
:1006C000239A2B9A85B10895239A2B9885B1089582
:1006D000229A2A9A85B10895229A2A9885B1089576
:1006E000219A299A85B10895219A299885B108956A
:1006F000209A289A85B10895209A289885B108955E
:100700008230A1F0833028F4882351F08130D9F46D
:100710000AC0843089F0843060F08530A1F410C0C4
:10072000209A289A0BC0219A299A08C0229A2A9ABC
:1007300005C0239A2B9A02C0249A2C9A85B1089559
:10074000259A2D9A85B108958FEF84B98FE385B9E5
:1007500008958230A1F0833028F4882351F081304D
:10076000D9F40AC0843089F0843060F08530A1F477
:1007700010C0209A28980BC0219A299808C0229A64
:100780002A9805C0239A2B9802C0249A2C9885B1E8
:100790000895259A2D9885B108950F931F93082FDA
:1007A00010E0101720F0812F0E94A90303C0812FB1
:1007B0000E9480031F5F1630A1F71F910F910895CB
:1007C0000F931F93082F10E0101721F4812F0E9420
:1007D000800303C0812F0E94A9031F5F1630A1F779
:1007E0001F910F9108950F931F93CF93DF93C0E054
:1007F000D0E0082F10E0C8010C2E02C09595879517
:100800000A94E2F780FF04C08C2F0E94800303C08B
:100810008C2F0E94A9032196C630D10561F7DF9184
:10082000CF911F910F9108958FEF84B980EC85B916
:100830000895209A289A85B10895209A289885B11C
:10084000089581E00E9479010895EF92FF920F933D
:100850001F93CF93DF93082F662321F4C0E0D0E0ED
:1008600010E022C0862F90E0A0E0B0E022E0880FE8
:10087000991FAA1FBB1F2A95D1F77C01C0E0D0E0C9
:1008800010E009C080E00E947901C80FD91F1F5FE6
:10089000C7010197F1F71017A8F308C080E00E9484
:1008A0007901C80FD91F1F5F1017C0F3CE01602F49
:1008B00070E00E94620D862FDF91CF911F910F9102
:1008C000FF90EF9008950F931F93182F062F82E04B
:1008D00063E040E028E20E944601812F602F0E94E1
:1008E0002504E0910901F0910A0190912301908380
:1008F000EAE7F0E090819F7790831F910F91089530
:10090000CF92DF92EF92FF920F931F93CF93DF93DB
:10091000C82E662329F4EE24FF248701DD242BC092
:10092000862F90E0A0E0B0E032E0880F991FAA1F68
:10093000BB1F3A95D1F7EC01EE24FF248701DD249B
:100940000DC081E00E947901A0E0B0E0E80EF91E40
:100950000A1F1B1FD394CE010197F1F7DC1488F313
:100960000CC081E00E947901A0E0B0E0E80EF91E21
:100970000A1F1B1FD394DC14A0F32C2D30E040E0A1
:1009800050E0C801B7010E94760DC901DF91CF91F7
:100990001F910F91FF90EF90DF90CF9008950F93EC
:1009A0001F93182F062F82E063E040E028E20E94A8
:1009B0004601812F602F0E948004E0910901F0918F
:1009C0000A01209123012083EAE7F0E020812F77BC
:1009D00020831F910F91089582E063E040E028E2B8
:1009E0000E94460181E00E947901E0910901F091A5
:1009F0000A01209123012083EAE7F0E020812F778C
:100A00002083A0E0B0E0BC01CD010E94DB0B23E914
:100A100031E040EA5BE30E94E00C089582E063E08D
:100A200040E028E20E944601089580E00E9479019A
:100A3000089582E063E040E028E20E94460181E000
:100A40000E947901E0910901F0910A0120912301AE
:100A50002083EAE7F0E020812F7720830895E0915A
:100A60000901F0910A01809123018083EAE7F0E017
:100A700080818F778083089582E063E040E028E200
:100A80000E94460180E00E947901E0910901F09105
:100A90000A01909123019083EAE7F0E090819F772B
:100AA0009083089581E00E9479010895EF92FF926A
:100AB0000F931F93CF93DF93082F662321F4C0E099
:100AC000D0E010E022C0862F90E0A0E0B0E042E04D
:100AD000880F991FAA1FBB1F4A95D1F77C01C0E060
:100AE000D0E010E009C080E00E947901C80FD91F52
:100AF0001F5FC7010197F1F71017A8F308C080E046
:100B00000E947901C80FD91F1F5F1017C0F3CE01D3
:100B1000602F70E00E94620D862FDF91CF911F91B0
:100B20000F91FF90EF9008950F931F93182F062FAA
:100B300081E063E040E028E20E944601812F602FBF
:100B40000E945605E0910901F0910A01909123015C
:100B50009083EAE7F0E090819F7790831F910F9157
:100B60000895CF92DF92EF92FF920F931F93CF934E
:100B7000DF93C82E662329F4EE24FF248701DD24A9
:100B80002BC0862F90E0A0E0B0E052E0880F991FC4
:100B9000AA1FBB1F5A95D1F7EC01EE24FF24870151
:100BA000DD240DC081E00E947901A0E0B0E0E80EF4
:100BB000F91E0A1F1B1FD394CE010197F1F7DC1415
:100BC00088F30CC081E00E947901A0E0B0E0E80E5B
:100BD000F91E0A1F1B1FD394DC14A0F32C2D30E048
:100BE00040E050E0C801B7010E94760DC901DF91D5
:100BF000CF911F910F91FF90EF90DF90CF900895CC
:100C00000F931F93182F062F81E063E040E028E246
:100C10000E944601812F602F0E94B105E0910901D9
:100C2000F0910A01209123012083EAE7F0E020817E
:100C30002F7720831F910F91089581E063E040E0BA
:100C400028E20E94460181E00E947901E0910901B9
:100C5000F0910A01209123012083EAE7F0E020814E
:100C60002F772083A0E0B0E0BC01CD010E94DB0B18
:100C700023E931E040EA5BE30E94E00C089581E063
:100C800063E040E028E20E944601089580E00E946F
:100C90007901089581E063E040E028E20E94460186
:100CA00081E00E947901E0910901F0910A0120910F
:100CB00023012083EAE7F0E020812F772083089545
:100CC000E0910901F0910A01809123018083EAE714
:100CD000F0E080818F778083089581E063E040E0D9
:100CE00028E20E94460180E00E947901E09109011A
:100CF000F0910A01909123019083EAE7F0E090815E
:100D00009F779083089581E00E9479010895EF9282
:100D1000FF920F931F93CF93DF93082F662321F445
:100D2000C0E0D0E010E022C0862F90E0A0E0B0E06C
:100D300062E0880F991FAA1FBB1F6A95D1F77C013B
:100D4000C0E0D0E010E009C080E00E947901C80F47
:100D5000D91F1F5FC7010197F1F71017A8F308C04B
:100D600080E00E947901C80FD91F1F5F1017C0F3E0
:100D7000CE01602F70E00E94620D862FDF91CF912F
:100D80001F910F91FF90EF9008950F931F93182FCD
:100D9000062F80E063E040E028E20E944601812FB8
:100DA000602F0E948706E0910901F0910A0190915D
:100DB00023019083EAE7F0E090819F7790831F9171
:100DC0000F910895CF92DF92EF92FF920F931F93AE
:100DD000CF93DF93C82E662329F4EE24FF248701E6
:100DE000DD242BC0862F90E0A0E0B0E072E0880FF9
:100DF000991FAA1FBB1F7A95D1F7EC01EE24FF249F
:100E00008701DD240DC081E00E947901A0E0B0E0FF
:100E1000E80EF91E0A1F1B1FD394CE010197F1F7AC
:100E2000DC1488F30CC081E00E947901A0E0B0E0FE
:100E3000E80EF91E0A1F1B1FD394DC14A0F32C2DFF
:100E400030E040E050E0C801B7010E94760DC901D2
:100E5000DF91CF911F910F91FF90EF90DF90CF9096
:100E600008950F931F93182F062F80E063E040E052
:100E700028E20E944601812F602F0E94E206E09145
:100E80000901F0910A01209123012083EAE7F0E0B3
:100E900020812F7720831F910F91089580E063E0D8
:100EA00040E028E20E94460181E00E947901E09141
:100EB0000901F0910A01209123012083EAE7F0E083
:100EC00020812F772083A0E0B0E0BC01CD010E94FB
:100ED000DB0B23E931E040EA5BE30E94E00C08957C
:100EE00080E063E040E028E20E944601089580E04F
:100EF0000E947901089580E063E040E028E20E94CA
:100F0000460181E00E947901E0910901F0910A0116
:100F1000209123012083EAE7F0E020812F772083CE
:100F20000895E0910901F0910A01809123018083E5
:100F3000EAE7F0E080818F778083089580E063E0C6
:100F400040E028E20E94460180E00E947901E091A1
:100F50000901F0910A01909123019083EAE7F0E002
:100F600090819F779083089580E00E94A90381E09B
:100F70000E94800382E00E94A90383E00E94A903EB
:100F800084E00E94800385E00E94A903089580E028
:100F90000E94A90381E00E94800382E00E948003F6
:100FA00083E00E94A90384E00E94A90385E00E94D7
:100FB000A903089580E00E94A90381E00E94A9038B
:100FC00082E00E94800383E00E94A90384E00E94E3
:100FD000A90385E00E948003089580E00E948003B9
:100FE00081E00E94A90382E00E94A90383E00E949D
:100FF000A90384E00E94A90385E00E94800308956C
:1010000080E00E94800381E00E94A90382E00E94A8
:10101000A90383E00E94800384E00E94A90385E085
:101020000E94A903089580E00E94A90381E00E9424
:10103000A90382E00E94A90383E00E94800384E068
:101040000E94800385E00E94A90308950E9409037D
:10105000809300019091000180910801811197BD5A
:1010600008951F930E94090380930001809100015D
:10107000863040F40DC00E9426080E941308109389
:10108000010101C011E0809101018823A1F302C098
:10109000109201011F91089580910601909107011E
:1010A000892B11F58091040190910501892B41F460
:1010B0008091020190910301892B11F00E94B407E5
:1010C0008091060190910701892B71F080910401B4
:1010D00090910501892B41F48091020190910301C7
:1010E000892B11F00E9413080895809106019091B8
:1010F0000701892B11F58091040190910501892B3D
:1011000041F08091020190910301892B11F00E941E
:10111000C7078091060190910701892B71F080919A
:10112000040190910501892B41F480910201909175
:101130000301892B11F00E94130808958091060184
:1011400090910701892B11F580910401909105017F
:10115000892B41F08091020190910301892B11F4B8
:101160000E94DA078091060190910701892B71F0A6
:101170008091040190910501892B41F48091020135
:1011800090910301892B11F00E941308089580911A
:10119000060190910701892B11F180910401909132
:1011A0000501892B41F08091020190910301892B67
:1011B00011F40E94ED078091060190910701892B9F
:1011C00071F08091040190910501892B41F4809187
:1011D000020190910301892B11F00E9413080895D8
:1011E0008091060190910701892B11F180910401F2
:1011F00090910501892B41F48091020190910301A6
:10120000892B11F40E94000880910601909107013A
:10121000892B71F08091040190910501892B41F493
:101220008091020190910301892B11F00E94130813
:1012300008958091060190910701892B11F1809109
:10124000040190910501892B41F480910201909154
:101250000301892B11F00E941308809106019091DF
:101260000701892B71F08091040190910501892B70
:1012700041F48091020190910301892B11F00E94A9
:10128000130808950E9426080E947B079093070187
:10129000809306010E944A06909305018093040101
:1012A0000E94190590930301809302010E9419097D
:1012B0000E94F0080E94C7080E949E080E947508BC
:1012C0000E944C08089514BE14BE88E10FB6F8942D
:1012D00080936000109260000FBE0E9431030E9454
:1012E00013080E944209FDCF2F923F924F925F92C6
:1012F0006F927F928F929F92AF92BF92CF92DF9226
:10130000EF92FF920F931F93DF93CF93CDB7DEB78A
:1013100065970FB6F894DEBF0FBECDBF5B016C01C1
:101320004D8B3901402E99240F2EF0E0EF2EF0E086
:10133000FF2EF0E00F2FFFE31F2FF02D0BC0C80191
:10134000B70120E030E040E251E40E94420B7B0113
:101350008C0193942D89921690F3C601B50120E07B
:1013600030E040E050E00E943E0B87FD02C099242F
:1013700009C0D7FAD094D7F8D0948DE2F3018083D6
:1013800099249394C601B501A80197010E94DA0A35
:10139000698B7A8B8B8B9C8B0E94180C6D877E8758
:1013A0008F87988B0E94AA0B5B016C0197FF0DC081
:1013B0008DE28983D094C094B094A094A11CB11CF8
:1013C000C11CD11C882483940FC06115710581054F
:1013D000910549F48824F1E0EF2EF12C012D112D17
:1013E0005524539409C08824E12CEAECFE2EEAE946
:1013F0000E2FEBE31E2F55241E010894211C311CD7
:10140000AE14BF04C006D10610F45520E1F0C601A9
:10141000B501A80197010E94760DF101E80DF11DBB
:10142000205D20832053839430E040E050E0CA01E7
:10143000B901A80197010E94430DA61AB70AC80A6C
:10144000D90A55245394FBE0F81590F0C801B70170
:101450002AE030E040E050E00E94760DC901DA0158
:101460007C018D01E114F1040105110549F668C004
:1014700080E09E012F5F3F4F08C0941428F4F301D1
:10148000E90DF11D908393948F5FF901E80FF11D31
:101490009081992391F7941430F4F301E90DF11D33
:1014A0008EE28083939469897A898B899C892D85C2
:1014B0003E854F8558890E94D90A88241EC09414FD
:1014C00028F520E030E040E251E40E94E00C5B01AE
:1014D0006C010E94AA0B7B018C010E94DD0B9B0119
:1014E000AC01C601B5010E94D90AF301E90DF11D55
:1014F00020E3E20EE08293948394ED898E16F8F255
:10150000941420F4F301E90DF11D1082C3016596D6
:101510000FB6F894DEBF0FBECDBFCF91DF911F9104
:101520000F91FF90EF90DF90CF90BF90AF909F9082
:101530008F907F906F905F904F903F902F90089585
:10154000FE01E80DF11D118293CF0F931F938C01C3
:101550000E944E0746E0980104E10E9474091F9121
:101560000F9108950F931F938C010E941D0646E072
:10157000980104E10E9474091F910F9108950F933F
:101580001F938C010E94EC0446E0980104E10E9444
:1015900074091F910F9108950F931F938C010E945E
:1015A000B90246E0980104E10E9474091F910F916D
:1015B00008955058BB27AA270ED0B1C1A2D130F050
:1015C000A7D120F031F49F3F11F41EF497C10EF41F
:1015D000E095E7FB64C1E92FB3D180F3BA17620746
:1015E00073078407950718F071F49EF5E2C10EF4B5
:1015F000E0950B2EBA2FA02D0B01B90190010C0123
:10160000CA01A0011124FF27591B99F0593F50F43A
:10161000503E68F11A16F040A22F232F342F442792
:10162000585FF3CF469537952795A795F04053958A
:10163000C9F77EF41F16BA0B620B730B840BBAF05A
:101640009150A1F0FF0FBB1F661F771F881FC2F7C5
:101650000EC0BA0F621F731F841F48F487957795D9
:101660006795B795F7959E3F08F0B3CF9395880F90
:1016700008F09927EE0F979587950895ECD008F418
:1016800081E008950CD04BC143D140F03AD130F005
:1016900021F45F3F19F003C151118CC12FC150D10A
:1016A00098F39923C9F35523B1F3951B550BBB2729
:1016B000AA2762177307840738F09F5F5F4F220FD6
:1016C000331F441FAA1FA9F333D00E2E3AF0E0E8CF
:1016D00030D091505040E695001CCAF729D0FE2F1B
:1016E00027D0660F771F881FBB1F261737074807AD
:1016F000AB07B0E809F0BB0B802DBF01FF27935863
:101700005F4F2AF09E3F510568F0C9C053C15F3F4B
:10171000ECF3983EDCF3869577956795B795F7954A
:101720009F5FC9F7880F911D9695879597F9089542
:10173000E1E0660F771F881FBB1F621773078407DE
:10174000BA0720F0621B730B840BBA0BEE1F88F7ED
:10175000E095089504D06894B1112CC10895F8D093
:1017600088F09F5790F0B92F9927B751A0F0D1F08A
:10177000660F771F881F991F1AF0BA95C9F712C014
:10178000B13081F016D1B1E0089513C1672F782FE1
:101790008827B85F39F0B93FCCF386957795679580
:1017A000B395D9F73EF490958095709561957F4FEC
:1017B0008F4F9F4F0895E89409C097FB3EF4909592
:1017C0008095709561957F4F8F4F9F4F9923A9F01A
:1017D000F92F96E9BB279395F695879577956795A9
:1017E000B795F111F8CFFAF4BB0F11F460FF1BC0ED
:1017F0006F5F7F4F8F4F9F4F16C0882311F096E980
:1018000011C0772321F09EE8872F762F05C066232D
:1018100071F096E8862F70E060E02AF09A95660FE6
:10182000771F881FDAF7880F9695879597F908959F
:10183000A9D080F09F3740F491110EF0BBC060E05A
:1018400070E080E89FEB089526F41B16611D711D62
:10185000811D2BC045C0990F0008550FAA0BE0E869
:10186000FEEF16161706E807F907C0F01216130662
:10187000E407F50798F0621B730B840B950B39F4A2
:101880000A2661F0232B242B252B21F408950A2608
:1018900009F4A140A6958FEF811D811D089597F948
:1018A0009F6780E870E060E00895882371F47723F3
:1018B00021F09850872B762F07C0662311F49927C3
:1018C0000DC09051862B70E060E02AF09A95660F6B
:1018D000771F881FDAF7880F9695879597F90895EF
:1018E0009F3F31F0915020F4879577956795B79594
:1018F000880F911D9695879597F908959FEF80EC35
:10190000089500240A941616170618060906089565
:1019100000240A9412161306140605060895092ECB
:101920000394000C11F4882352F0BB0F40F4BF2B3A
:1019300011F460FF04C06F5F7F4F8F4F9F4F08957A
:1019400057FD9058440F551F59F05F3F71F0479570
:10195000880F97FB991F61F09F3F79F08795089555
:10196000121613061406551FF2CF4695F1DF08C074
:10197000161617061806991FF1CF86957105610591
:1019800008940895E5DFA0F0BEE7B91788F4BB27F7
:101990009F3860F41616B11D672F782F8827985F3F
:1019A000F7CF869577956795B11D93959639C8F3CE
:1019B0000895E894BB2766277727CB0197F9089508
:1019C0000BD0ADCF9EDF28F0A3DF18F0952309F0F0
:1019D00066CF94CF1124EECFB3DFA0F3959FD1F360
:1019E000950F50E0551F629FF001729FBB27F00DCD
:1019F000B11D639FAA27F00DB11DAA1F649F662722
:101A0000B00DA11D661F829F2227B00DA11D621F70
:101A1000739FB00DA11D621F839FA00D611D221F2A
:101A2000749F3327A00D611D231F849F600D211D0E
:101A3000822F762F6A2F11249F5750408AF0E1F0B1
:101A400088234AF0EE0FFF1FBB1F661F771F881FFA
:101A500091505040A9F79E3F510570F020CFAACF7A
:101A60005F3FECF3983EDCF3869577956795B795E5
:101A7000F795E7959F5FC1F7FE2B880F911D96950F
:101A8000879597F90895629FD001739FF001829F17
:101A9000E00DF11D649FE00DF11D929FF00D839FFD
:101AA000F00D749FF00D659FF00D9927729FB00D9A
:101AB000E11DF91F639FB00DE11DF91FBD01CF01AD
:101AC00011240895AA1BBB1B51E107C0AA1FBB1F0D
:101AD000A617B70710F0A61BB70B881F991F5A95BA
:101AE000A9F780959095BC01CD010895A1E21A2E29
:101AF000AA1BBB1BFD010DC0AA1FBB1FEE1FFF1FB2
:101B0000A217B307E407F50720F0A21BB30BE40B01
:101B1000F50B661F771F881F991F1A9469F7609548
:101B20007095809590959B01AC01BD01CF01089502
:041B3000F894FFCF57
:00000001FF
